:020000041008E2
:4000000000780408250C08100D0000008D0C08108D0C08108D0C08108D0C08100000000000000000000000000000000081820810890C08100000000021830810858308107E
:40004000890C0810890C0810890C0810890C0810890C0810890C0810890C0810890C0810890C0810890C0810890C0810890C0810890C0810890C0810890C0810890C0810B0
:40008000890C0810890C0810890C0810890C0810890C0810890C0810890C0810890C0810890C0810890C0810890C0810890C0810890C0810890C0810890C0810890C081070
:4000C000890C0810890C0810890C0810890C0810890C0810890C0810890C0810890C0810890C0810890C0810890C0810890C0810890C0810890C0810890C0810890C081030
:40010000890C0810890C0810890C0810890C0810890C0810890C0810890C0810890C0810890C0810890C0810890C0810890C0810890C0810890C0810890C0810890C0810EF
:40014000890C0810890C0810890C0810890C0810890C0810890C0810890C0810890C0810890C0810890C0810890C0810890C0810890C0810890C0810890C0810890C0810AF
:40018000890C0810890C0810890C0810890C0810890C0810890C0810890C0810890C0810890C0810890C0810890C0810890C0810890C0810890C0810890C0810890C08106F
:4001C000890C0810890C0810890C0810890C0810890C0810890C0810890C0810890C0810890C0810890C0810890C0810890C0810890C0810890C0810890C0810890C08102F
:40020000890C0810890C0810890C0810890C0810890C0810890C0810890C0810890C0810890C0810890C0810890C0810890C0810890C0810890C0810890C0810890C0810EE
:40024000890C0810890C0810890C0810890C0810890C0810890C0810890C0810890C0810890C0810890C0810890C0810890C0810890C0810890C0810890C0810890C0810AE
:40028000890C0810890C0810890C081010B5054C237833B9044B13B10448AFF300800123237010BD44760208000000001CE50810084B10B51BB108490848AFF300800848C1
:4002C000036803B910BD074B002BFBD0BDE81040184700BF00000000487602081CE50810B04602080000000000B583B0104B1B78022B0DD101238DF8053002A9022301F846
:40030000043D00231A460B48006806F0F5FE0CE05BB902238DF8053002A901F8043D00231A460448006806F0E7FE03B05DF804FBD10E030818C2020800B583B0064B1B88CE
:40034000ADF8043000231A4601A90448006806F0D3FE03B05DF804FB18B0081018C2020810B5184B984203D00233984223D010BD8B782BBB4B68144C9A881968204608F090
:40038000D8FCE37811498B61A378CB616278237843EA0223A3F5FA630B62A3794B6063798B602379CB6000220A7002230848006806F0A2FE10BD0021044B586A06F096FC6D
:4003C00010BD00BF7900010048AB0208607602080CC2020800B583B000238DF8003001AA69460848006806F04FFF019B3BB14FF08052054B1A60BFF34F8FBFF36F8F03B0D6
:400400005DF804FB54AB020804ED00E000B583B0154B5A6910225A615B69144BB3F90030002B09DB5A0903F01F03012101FA03F360320F4941F8223001238DF8003000238C
:4004400001AA69460B48006806F01EFF019B3BB14FF08052084B1A60BFF34F8FBFF36F8F03B05DF804FB00BF0000324038D9081000E100E054AB020804ED00E010B5A2B09B
:4004800004460023019302AB0093684614F076FA70B99DF8043007E0013BDBB2009A02EBC302D279A24205D0002BF5D1002002E0002000E0012022B010BD00BF10B584B07C
:4004C00044F20603984258D00C4612D843F20203984230D003D8B0F5805F20D090E044F20103984277D044F20403984200F0848086E044F21403984265D008D844F2070364
:4005000098423DD044F20803984259D078E045F20103984212D03B4B984213D070E03A4812F028FE0021084604F022FB002867D10EF02AF964E013F04DFE61E00A88334B20
:400540009A845DE00B78487843EA002004F01CFD00EBC00043002E4A13449B89002B4FD004AB012223F8042D00930223002211462648406A06F01AFC42E0FFF7B5FE3FE0FB
:400580004878FFF77BFF28B963781F4880F8413014F038FA1F4B1B685A6A1C4991F824105171586A14F0B4F91B4B1B88ADF80C3000231A4603A91948006806F09DFD1FE050
:4005C000FFF7BAFE1CE042220F4808F0B2FB144814F0EEF914E00F4B1B685B6A1A78102A01D10522DA700B4B1B685A6A61795171586A14F055F903E0044B586A04F0E2FCF2
:4006000004B010BD130001008C42020860760208E00E0308F47802081CB0081018C202084443020810B50F4C0F49204601F0F0FBB4F90030002B08DB5A0903F01F00012169
:4006400081406032094840F82210002B08DB590903F01F03012202FA03F3044A42F8213010BD00BF38D908100D04081000E100E008B50EF089F80B4B1B7843B908BD0A4921
:40068000C95C012901D90132D2B2013301E000221346002BF3D01AB904F0A4F90028FBD108BD00BFC70E0308D00E030800B583B01B4801F041FB48B91A4803F0ABFE1A485E
:4006C00006F006FBFFF7AEFF0EF05EF84FF0FF3201A9164B186806F049FE0128F6D19DF8043013B1012B03D0F0E7FFF7C1FFEDE70F4B9B8C1B0A02D10E4AD35C00E00023F4
:40070000022BE3D00C4B1B78002BDFD10021084604F02EFA0028D9D10EF036F8D6E700BFBD040810D50308106103081054AB020860760208D00E0308D10E030808B54FF40E
:400740007A7303FB00F0034BA3FB0030800907F0C7F908BDD34D621030B589B005460C468B8A0A8B898B00910A490DF1120008F065FFA3882289084903A808F05FFF03AC4B
:400780000FCC28606960AA60EB6023782B74284609B030BD2CB0081040B0081070B598B02A49192000F006FC4FF0FF320FA9284B186806F0DBFD0128F6D100F00BFC00286B
:4007C000F2D1244A134653F8040B099000268DF8186006218DF819101B88ADF81C301389ADF820301C4D09AA1C49284600F026FC06AB1B4A1B49284600F04EFC10A96846D5
:40080000FFF7AAFF0AAC00980199029A039B0FC49DF810302370144C07AB22460AA9284600F03AFC08AB22460DF12E01284600F033FC012000F0CEFB3346012229463046CB
:4008400000F0D2FB304600F0C5FBADE73D07081008C2020820B0081058AB0208FCB0081000430208ACC70810F442020800B58DB001F08AFA012002F03FFE2D4BB3F90030F5
:40088000002B09DB5A0903F01F03012101FA03F36032284941F82230012002F03FFE03F0E3FB68B1122301930123009300221146104602F067FB18B18C211F4803F0C0FBA8
:4008C0005D2007F00DF900211C4802F03FFA18B19B21194803F0B4FB4FF0FF3203A9184B186806F043FD0128F6D19DF80C3013B1012B12D0F0E70B9B01930A9B0093099B91
:40090000069A0599049802F03DFB00231A4603A90C48006806F0F0FBDEE704A802F0A0F900231A4603A90748006806F0E5FBD3E730D9081000E100E07CB008104CB008103B
:400940000CC2020808C2020800B58BB000230993012002F0D1FD134BB3F90030002B09DB5A0903F01F03012101FA03F360320E4941F8223001238DF80030002309AA694695
:400980000A48006806F080FC099B3BB14FF08052074B1A60BFF34F8FBFF36F8F0BB05DF804FB00BF30D9081000E100E00CC2020804ED00E010B582B00B4B009300230122DF
:4009C0004FF0FF31094807F093FA094B186048B1044606F089FF0023009302460121204607F0A0FA02B010BD750A081088B0081010C2020810B582B00B4B009300230122A7
:400A00004FF0FF31094807F073FA094B186048B1044606F069FF0023009302460121204607F080FA02B010BD9D0A0810A0B0081014C2020810B582B0054B1C680023009327
:400A400002460421204607F06DFA02B010BD00BF14C2020810B582B0054B1C680023009302460421204607F05DFA02B010BD00BF10C2020800B583B005238DF80430002280
:400A80008DF80520134601A90348006806F034FB03B05DF804FB00BF18C2020800B583B000228DF8042005238DF80530134601A90348006806F020FB03B05DF804FB00BFE5
:400AC00018C2020800B583B0FFF774FFFFF792FF4FF0FF3201A94B4B186806F047FC0128F6D19DF80530013B042B41D8DFE803F0030E19212C002022434B5A604FF0FF306A
:400B0000FFF798FF0122414B1A7031E020223E4B9A604FF0FF30FFF78DFF02223B4B1A7026E04FF4FA70FFF785FF0322374B1A701EE02022344B5A604FF47A60FFF77AFF92
:400B40000422324B1A7013E0304B1B78032B03D120222D4BDA600BE0042B09D120222A4B9A604FF0FF30FFF765FF0222274B1A709DF80430013B042BAAD8DFE803F0030E43
:400B800019212C008022224B5A604FF0FF30FFF761FF01221D4B5A709AE780221C4B9A604FF0FF30FFF756FF0222184B5A708FE74FF4FA70FFF74EFF0322144B5A7087E73D
:400BC0008022134B5A604FF47A60FFF743FF04220E4B5A707CE70D4B5B78032B03D180220B4BDA6074E7042B7FF472AF8022084B9A604FF0FF30FFF72DFF0222034B5A7002
:400C000066E700BF18C2020880003240D0420208800632407047EFF3108072B6704780F310887047FFF7F6FF72B6114C114DAC4209DA21686268A368043BA2BFC858D05017
:400C4000FAE70C34F3E70C490C4A00209142BCBF41F8040BFAE70A480A490860BFF34F8F00F094F900F06EF900F01EF8FEE7000044CD09105CCD091044760208A80F0308E9
:400C80000040020808ED00E0FEE7FEE700B504207146084202D0EFF3098001E0EFF30880043003F0EFF9FEE700B583B0274A136823F07F4343F070531360002201210A2075
:400CC00006F0F4F9224B186000220221052006F0EDF9204B186000222421012006F0E6F91D4B186000222421012006F0DFF91B4B1860002401941423009323464FF4806281
:400D00001749184806F076FD01940F230093234680221549154806F06DFD01940A230093234680221249134806F064FD0194052300932346F8221049104806F05BFD06F0D5
:400D40008BFD86210E4803F07BF9FEE70000274054AB020818C202080CC2020808C20208B8B00810AD060810C4B008106D080810D0B00810C50A0810E0B008109D0708105B
:400D8000F0B0081008B5002003F0ECF808BD00BF08B5BD21014803F053F908BDF0B0081008B5D521014803F04BF908BDF0B00810704700BF5C4AD2F8803303F00F0303F161
:400DC000D00152F8212002F00702032A04D0042A05D092B9554914E0554A116811E003F1C002514951F8222002F01F02112A06D0132A04D04FF4FA4103E04E4901E04FF486
:400E000000418BBB484BD3F8902502F00100D3F88825C2F30172D3F8883513F0405F07D0414BD3F88835C3F30173012B02D102E0012300E0002303B108B9032A46D13A4803
:400E4000D0F88025C2F31103D0F88425C2F30C02D0F88005C0F300600130B1FBF2F202FB03F2B2FBF0F131E0012B2FD12E4BD3F8402602F00100D3F80026C2F30172D3F8A9
:400E8000003613F0405F07D0274BD3F80036C3F30173012B02D102E0012300E0002303B108B9032A12D12048D0F8002602F07F02D0F80036C3F30423D0F80006C0F30440F0
:400EC00002FB01F2B2FBF3F2B2FBF0F1164BD3F88033C3F3011321FA03F215494A601648D0F89030C3F3072301330069000E0130B2FBF0F08860B2FBF3F3CB600B6103F5E8
:400F0000742202F23F220D48A0FB0202C2F387420A7503F2E7330A4AA2FB03239B098B61DB03CB61704700BF0000264000127A00D442020800366E010000214083DE1B43C8
:400F4000D34D621008B5104BD3F8802122F0404242F08042C3F88021D3F8802142F00042C3F88021D3F8802122F00102C3F88021FFF71EFFFFF71EFF00F0C4FE00F0CAFECE
:400F800002F00CFD08BD00BF0000264008B5FFF742FE074AD2F8883043F47003C2F88830BFF34F8FBFF36F8FFFF739FE08BD00BF00ED00E059B110B50446084600F0F6FD62
:400FC00000F046F9204600F0E9F9002010BD0120704700BF08B510B100F06AFD01E000F08DFD00B1012008BDF8B507460E4614461D4613B10120FFF7EDFF24B9314638469B
:4010000000F0FCFB15E0631EDBB2012B11D80021384600F0E3F9012C07D10121384600F0DDF90221304600F0D9F90321304600F0D5F915B10020FFF7CDFFF8BDF8B5147892
:4010400053789C421FD29478D578AC421DD2212B1DD8AF2D1DD815460F460646A4B20DE02A7804EB4410104480B26B789A1A92B23918304407F05DFE0134A4B2EB789C4226
:40108000EED90020F8BD0120F8BD0120F8BD0120F8BD0120F8BD00BF2DE9F04F8B464FF0000883E01D78167AB5426DD25E78577ABE4269D2177992F807E092F805C00EFB17
:4010C00006C692F806C006EB461605FB0C653D44AFB2A4F12105EDB25D2D51D8213C1EFB0CFE1EFB04FE1FFA8EFC4FF0000E26E01FFA86F91FFA8EF404EB44153D444D4409
:40110000ADB20AFB04C44C44A4B2917A21B111680C5DE443445506E019B911680C5D445501E04FF001080136F6B200E0002692F806A05645DCD30EF1010E5FFA8EFED47923
:40114000A645F3D320E006EB46143C442C44A4B292F80AE0BEF1000F04D04FF0FF0E00F804E003E04FF0000E00F804E00135EDB200E000259479A542E5D30136F6B200E0AE
:401180000026D479A642F4D31C780134E4B21C70157AAC4204D300241C705C7801345C705D78547AA54206D80BF1010B9BF80040002C7FF477AF4046BDE8F08F2DE9F04150
:4011C00080460E4615460F4C08276760702000F023FD404600F020FDA7606760722000F01BFD05E0771C307800F016FD25463E466B1E9CB2002DF5D10822024B9A60BDE89C
:40120000F08100BF0006324000B583B002AB03F8011D01221946FFF7D1FF03B05DF804FBF8B507460E46094C08256560702000F0F3FC384600F0F0FCA5606560732000F05E
:40124000EBFC304600F018FDA560F8BD0006324038B50425074B5D60074C402363601023636000F0A9FC0822044B5A6065602023636038BD000032408002324000063240E0
:4012800038B5434C6F220021204607F05DFD631C236704F14E03636704F12203A36700F01FFD38B13B4B1B680A20984700F018FD002864D100217220FFF7B2FF00F00F004A
:4012C00002285ED14021FFF79FFF00210F20FFF7A7FF10F0800F56D002210B20FFF794FF08222D490120FFF769FFD1210720FFF78BFF02210820FFF787FFC2210920FFF7A7
:4013000083FF03210420FFF77FFF01210320FFF77BFF00210320FFF777FF1E4B1B680A209847002500E01D4601210520FFF76CFF184C23686420984703210520FFF764FF11
:401340002368322098470F210520FFF75DFF23683220984700210F20FFF762FF10F0400F05D040210220FFF74FFF2B4603E06B1C9BB2042DD7D1032B07D9052038BD012072
:4013800038BD022038BD032038BD002038BD00BF887602086C0E0308E0D8081010F1090F0ADB10F1040F09DB052809DD0A2809DD0F2809DC032208E0092206E0072204E070
:4013C000052202E0042200E00122034BA3F87C20A3F87E20704700BF887602082DE9F84F06460D46047828B1CE4B984205D10127002403E00127FF2400E000274FF000089D
:40140000D0E1C8EBC80AC8EB0A1ADFF820930AEB090B6F220021584607F096FC0BF1010EC14BC3F870E00AF148004844063058670AF1200AD14409F10209C3F87890202209
:40144000002397E10FB934780136032D00F29081DFE815F004006500C600270100EB030C14F0400F01D0C02100E080218CF8001049B214F0100F02D04FF0300A01E04FF033
:40148000200A4AEA01018CF8001014F0040F02D04FF00C0A01E04FF0080A4AEA01018CF8001014F0010F02D04FF0030A01E04FF0020A4AEA01018CF800100EEB020C14F0CB
:4014C000800F01D0032100E002218CF8001049B214F0200F02D04FF00C0A01E04FF0080A4AEA01018CF8001014F0080F02D04FF0300A01E04FF0200A4AEA01018CF8001006
:40150000013A92B214F0020F02D06FF03F0A01E06FF07F0A4AEA01018CF8001028E100EB030C14F0400F01D0802100E040218CF8001049B214F0100F02D04FF0200A01E033
:401540004FF0100A4AEA01018CF8001014F0040F02D04FF0080A01E04FF0040A4AEA01018CF8001014F0010F02D04FF0020A01E04FF0010A4AEA01018CF800100EEB020CE9
:4015800014F0800F01D0022100E001218CF8001049B214F0200F02D04FF0080A01E04FF0040A4AEA01018CF8001014F0080F02D04FF0200A01E04FF0100A4AEA01018CF87B
:4015C0000010013A92B214F0020F02D06FF07F0A01E04FF0400A4AEA01018CF80010C7E000EB030C14F0400F01D0C02100E040218CF8001049B214F0100F02D04FF0300A75
:4016000001E04FF0100A4AEA01018CF8001014F0040F02D04FF00C0A01E04FF0040A4AEA01018CF8001014F0010F02D04FF0030A01E04FF0010A4AEA01018CF800100EEB50
:40164000020C14F0800F01D0032100E001218CF8001049B214F0200F02D04FF00C0A01E04FF0040A4AEA01018CF8001014F0080F02D04FF0300A01E04FF0100A4AEA01011B
:401680008CF80010013A92B214F0020F02D06FF03F0A01E04FF0400A4AEA01018CF8001066E000EB030C14F0400F01D0802100E0C0218CF8001049B214F0100F02D04FF0CB
:4016C000200A01E04FF0300A4AEA01018CF8001014F0040F02D04FF0080A01E04FF00C0A4AEA01018CF8001014F0010F02D04FF0020A01E04FF0030A4AEA01018CF800103A
:401700000EEB020C14F0800F01D0022100E003218CF8001049B214F0200F09D04FF0080A08E000BFFFFF0F10887602081CC202084FF00C0A4AEA01018CF8001014F0080F3D
:4017400002D04FF0200A01E04FF0300A4AEA01018CF80010013A92B214F0020F02D06FF07F0A01E06FF03F0A4AEA01018CF8001001339BB2202B7FF665AEC8F1AF031BB2DD
:4017800099101A4A134003D5013B63F003030133174A02FA83F31B7A09F8013008F101081FFA88F8B8F1AF0F7FF62BAE002515E0C4EBC403C4EB03136F220E4919440A207A
:4017C000FFF7FCFC07210220FFF71EFD0134A4B200E00024AF2CEBD90135ADB2064BB3F87C309D42F5D3BDE8F88F00BF03000080E0D808101CC20208887602082DE9F04713
:4018000006460D46D2210920FFF7FEFC0024C6E0C4EBC407C4EB0717DFF8008207EB08096F220021484607F08FFA09F1010C784BC3F870C007F1480EC6440EF1060EC3F8F5
:4018400074E02037B84408F10208C3F87880202000218EE0771C32786E1C95F800900EEB010582EA090212F0400F04D019F0400F03D0802302E0402300E0C0232B705BB23F
:4018800012F0100F05D019F0100F05D04FF0200A04E04FF0100A01E04FF0300A4AEA03032B7012F0040F05D019F0040F05D04FF0080A04E04FF0040A01E04FF00C0A4AEA99
:4018C00003032B7012F0010F05D019F0010F05D04FF0020A04E04FF0010A01E04FF0030A4AEA03032B700CEB000512F0800F04D019F0800F03D0022302E0012300E00323FA
:401900002B705BB212F0200F05D019F0200F05D04FF0080A04E04FF0040A01E04FF00C0A4AEA03032B7012F0080F05D019F0080F05D04FF0200A04E04FF0100A01E04FF0B6
:40194000300A4AEA03032B70013880B212F0020F05D019F0020F04D06FF07F0203E0402201E06FF03F0213432B70013189B235463E4620297FF66EAFC4F1AF031BB299105C
:40198000244A134003D5013B63F003030133224A02FA83F31B7A08F801300134A4B2AF2C7FF636AF002627E0C4EBC405C4EB05151A4B1D446F2229460A20FFF7FFFB0721EB
:4019C0000220FFF721FCC4F1AF0343F38D032B44002283F822206F2229460A20FFF7EEFB07210220FFF710FC0134A4B200E00024AF2CD9D90136B6B2054BB3F87E309E429E
:401A0000F5D3C2210920FFF7FFFBBDE8F08700BF8876020803000080E0D808101CC20208002307E01349086F5522C254496FCA5401339BB2202BF5D970B5002416E0A608FD
:401A40000C4DAA6F04F003030B490B441B7A93556F2229460A20FFF7B1FB07210220FFF7D3FBAB6F00229A550134A4B2AF2CE6D970BD00BF88760208E0D8081008B500230C
:401A800004E00021094AD1540133DBB2152BF8D900210420FFF7B8FB6F2204490A20FFF78DFB07210220FFF7AFFB08BD8876020870B50F4C1023A3600E4D2B6814209847F5
:401AC00000F092F808220C4B9A604023A3600426A6602B680A20984766602B680A209847A6602B680A209847FFF7CAFB70BD00BF800232406C0E03080006324070B5FFF708
:401B00008FFFFFF7BBFF264E33681E209847254C40256560336832209847A56000210F20FFF77EFB10F0400F38D000210B20FFF76BFB01210320FFF767FB03210520FFF735
:401B400063FB01210520FFF75FFB354633683220984780210420FFF757FB00210520FFF753FB01210720FFF74FFB33681E20984700F048F810236360402363603368142036
:401B800098470822084B5A60042363602026A6602B681E2098476660002070BD042070BD6C0E03088002324000063240014B1860704700BF6C0E030810B5074C074A08495B
:401BC000204601F0EFFC236843F0004323600822044B9A6010BD00BF00006740A00E030838DA0810000632400822044B9A60044A136843F000431360704700BF000632400B
:401C00000000674008B50249024801F011FE08BDA00E03080000674008B50146154801F0ADFC144BD3F8C03F13F0040FF9D0114BD3F8042242F48032C3F80422D3F804227C
:401C400022F48032C3F80422D3F80422D3F8042342F48032C3F80423D3F8042322F48032C3F80423D3F804230422C3F8C02FD3F8C03F08BD0000674008B50146174801F026
:401C80007DFC164BD3F8C03F13F0040FF9D0134BD3F84003D3F8042242F48032C3F80422D3F8042222F48032C3F80422D3F80422D3F8042342F48032C3F80423D3F8042342
:401CC00022F48032C3F80423D3F804230422C3F8C02FD3F8C03FC0B208BD00BF00006740044B1B6913F0080F01D0012070470020704700BF8002324008B5012000F0E6FB42
:401D000008BD00BF08B500221146042000F00AF908BD00BF10B5064800F004FA02F00DFA0446044800F06AFA204602F00AFA10BD08770208ECD8081088B108B5094AD06261
:401D4000094B1B7833B9104602F098FA0122064B1A7000E0002020B902F0DEFA08BD0348704708BD0C430208887802080100160008B5034B1978034801F0E2FB08BD00BFD6
:401D800098780208700E030808B50C4B5B7833B90B490C4800F03CF80122084B5A70094BB3F90030002B08DB590903F01F03012202FA03F3044A42F8213008BD987802081F
:401DC000711D081030D9081000E100E038B50C4B9A680C4B9A420ED10D46044619B9FC21094802F02DF904F11003064A52F8230042F8235038BD1030044B53F8200038BDB8
:401E000000ED00E0004002086CDA08100000081070B338B504460D464368072B03D93621154802F00DF9B4F900306268002B08DB5201D2B203F1604303F5614383F80023A6
:401E400005E003F00F035201D2B20C49CA540C4B9A680C4B9A420DD11DB94521064802F0EFF82946B4F90000FFF7B0FF002038BD05487047002038BD6CDA081014ED00E033
:401E800000ED00E0004002080100560038B50369002B0DDA0D4604460B0C1B0423B140F2B321044802F0CCF8A9B26160002038BD014838BDB0DA081001008A0038B50368A6
:401EC000002B01DA002300E0094B73B90D460446C2600B0C1B0423B140F29A21054802F0AFF8A9B2A160002038BD014838BD00BF01008A00B0DA081038B504460D4619B9C6
:401F00009921064802F09CF82369002B03DAE3682B60002038BD024838BD00BFF0DA081001008A000F2840D8F8B515460E46044682B979B90F2804D940F2A911214802F06C
:401F40007FF8600100F1804000F50C101E4B18600020F8BD5DB366B316F01F0F2BD10F2C04D940F2A911174802F06AF8640104F1804404F50C14144F3C607E60BD60F208D6
:401F80000021284606F0E0FE00212046FFF77EFF3A4652F8040B0021FFF790FF68B900213868FFF773FF50B9F8BD084870470748F8BD0648F8BD0548F8BD0548F8BD0448DF
:401FC000F8BD00BF30DB08109C78020803018A0001018A002DE9F0411B4B1B68DC68236883422CD90D464609A0EB4610012303FA00F819B902F0A1F8074600E00027124B9F
:4020000018680368002B01DA002300E00F4B83B9626852F8263018EA030F05D148EA030342F82630002400E0094C0021FFF72EFF00E0084C25B9384602F083F800E0064C2E
:402040002046BDE8F08100BF9C78020801008A00020188000301880004018A002DE9F0411B4B1B68DC68236883422CD90D464609A0EB4610012303FA00F819B902F05DF858
:40208000074600E00027124B18680368002B01DA002300E00F4B83B9626852F8263018EA030F05D023EA080342F82630002400E0094C0021FFF7EAFE00E0084C25B9384602
:4020C00002F03FF800E0064C2046BDE8F08100BF9C78020801008A00020188000301880004018A000B4B1B68DB681A6882420CD94109A0EB4110012202FA00F05B6853F871
:402100002130184203D004487047044870470448704700BF9C7802080101880004018A0000018800024B1B680BB9014B18607047A87802082DE9F8430446884691461E46BC
:40214000089F2A4B1B681BB9B421294801F078FF072C03D9B521264801F072FF234B1B682C2000FB04F01C18F5B21D50C6F307236360360CA6600F2D04D940F2A9111D48BD
:4021800001F05EFF6D0105F1804505F50C15256165680F2D04D94FF4E271164801F050FF154B03EB45156561A668330C1B0423B14FF4F1710F4801F043FF330C1B0423B1DE
:4021C00040F2E3110B4801F03BFFB3B243EA0646AE60C4F81C90C4F820800023A36117B1B7F90030A381BDE8F88300BFA878020870DB081030DB081000102340F0B58FB0B2
:40220000044618B950212C4801F01AFFA369072B03D95421284801F013FFE36A1BB95621254801F00DFFE368072B03D95721224801F006FF236A072B03D958211E4801F0F4
:40224000FFFE236B1BB959211B4801F0F9FE07AE04F114050FCD0FC62F6802AD26460FCE0FC533682B60079B1933ADF83030089B0D93A26AE16A0CAD00953B460A98FFF749
:4022800059FF00210091069B0A460598FFF752FF216B2846FFF7BCFDBDF93030002B08DB590903F01F03012202FA03F3034A42F821300FB0F0BD00BF70DB081000E100E0BF
:4022C000F8B506460F461D4614461AB9FD21264801F0B6FE254B1B681BB9FE21224801F0AFFE072E03D9FF211F4801F0A9FE072F04D94FF480711C4801F0A2FE1B4B1B688C
:402300002C2101FB063001FB07314B68012202FA03F31B04466802FA06F60269EAB18F69EFB91268002A01DA002200E0104AC2B92288134323600369DC6001238B614D6277
:402340000469330C1B0423B140F29A21094801F077FEB2B2A2600020F8BD0748F8BD0748F8BD0648F8BD00BF70DB0810A878020801008A0030DB081004028A0007028A00B7
:40238000F8B505460F461646124B1B6823B940F26111114801F054FE072D04D94FF4B1710D4801F04DFE0B4B1B682C2404FB0534236A23B94FF4B371074801F041FEE36975
:4023C000B34204D9236A43F826700020F8BD0348F8BD00BFA878020870DB08100A028A0038B504460D460B4B1B6823B940F29311094801F025FE072C04D94FF4CA710648A0
:4024000001F01EFE034B1B682C2202FB0434A56238BD00BFA878020870DB081070B582B000230193044620B94FF4EA71264801F007FE236923B940F2D511234801F000FEE6
:40244000636923B94FF4EB711F4801F0F9FD236A23B940F2D7111C4801F0F2FD6369DD682A0C1CD012041A601B6820690369002B15DA01A9FFF740FD60B9019803681E0C87
:40248000DBB2E269934206D2226A52F8233013B1984700E0002631462069FFF7F7FCADB275B16369ADB21D601B68636A1BB198470023636202E0A36A03B198470023A36123
:4024C00063691B6802B070BD70DB081010B504460B4B1B6823B94FF4DA710A4801F0B0FD072C04D940F2B511064801F0A9FD044B1B682C2000FB0430FFF790FF10BD00BFBE
:40250000A878020870DB081010B50446134B1B6823B940F22D21124801F092FD072C04D940F22E210E4801F08BFD0C4B1B682C2202FB0434B4F90C30002B0DDB5A0903F0D9
:402540001F03012101FA03F32032064941F82230BFF34F8FBFF36F8F002010BDA878020870DB081000E100E010B50446114B1B6823B940F24D21104801F062FD072C04D95D
:4025800040F24E210C4801F05BFD0A4B1B682C2202FB0434B4F90C30002B08DB590903F01F03012202FA03F3044A42F82130002010BD00BFA878020870DB081000E100E02C
:4025C0002DE9F04303685F4EA6FB034E4FEA5E1E642707FB1E3E5C4DA5FB0E43DC0804EB840C4FEA4C03C3EB0E0303EB041303F07F044368A6FB03E6760907FB1636A5FB89
:402600000653DD0805EB85077B00F31A03EB05131B0203F4FE432343447BFCB1047B14B143F4001401E023F4001444F480048368444FA7FB03577F09642505FB1737424D6C
:40264000A5FB0735EE0806EB86035D007D1B05EB06152D0405F4F8152C4315E08468394EA6FB04567609642505FB1646364CA4FB0654E50805EB85077C00341B04EB0514EA
:40268000240404F47C141C4303692E4FA7FB035E4FEA5E1E4FF0640C0CFB1E3E2A4EA6FB0E53DD0805EB85084FEA4803C3EB0E0303EB05131B0603F0E0631C434369A7FB2F
:4026C000035E4FEA5E1E0CFB1E3EA6FB0E53DD0805EB85084FEA4803C3EB0E0303EB051303F03F038569A7FB05E84FEA58180CFB1858A6FB085E4FEADE0505EB85094FEA08
:40270000490ECEEB080E0EEB051E4FEA0E2E0EF4F85E43EA0E05C369A7FB03077F090CFB1737A6FB0703D80800EB80067300FB1A03EB00131B0403F47F032B430C6013602B
:40274000BDE8F0831F85EB51CDCCCCCC2DE9F84F064601F0F2FC0446594B1B6913F0010F0CD1574B9B6813F0020F07D1544D0123AB60B72001F058FC0023AB60204601F044
:40278000E0FC4F4B9B691B0CC3F3031202EB8202570003F00F031F4407F5FA677469651E0B2D04D94FF46C71464801F049FCA7F5FA63642B04D940F2B131424801F040FC97
:4027C000414B13F805A0022C24D1A7F5FA63642B04D940F295313B4801F032FC17F0030F07D13A4BA3FB07235B09642202FB137353B9364BA3FB0723DB094FF4C87202FB1D
:4028000013731BB9012302E0012300E000230BB10AF1010A4FF0010BD9465C4648E0D6F810807569631E1E2B04D94FF45971254801F006FC6B1E0B2B04D940F265312148FE
:4028400001F0FEFBA7F5FA63642B04D940F266311C4801F0F5FB022D02D80C357A1E00E03A461A2305FB0333194DA5FB031304EBD303134403EB92031449A1FB0212510924
:4028800001EB41014800034403EBD2131149A3FB0112991A02EB51018908C1EBC101591A00D10721884502D109F10109A3460134F368994501D85445B1D95846BDE8F88F5F
:4028C00000002740BCDB0810B0DB08101F85EB51CDCCCCCC254992242DE9F84304460E46154603687F4AA2FB030149094FF0640C0CFB11317C48A0FB0173DF0807EB870E40
:402900004FEA4E03CB1A03EB071303F07F032779FF01FFB21F43A368A2FB032E4FEA5E1E0CFB1E3EA0FB0E30C00800EB80035900C1EB0E0101EB0011090201F4FE4139432C
:40294000237BDB039BB241EA030701F0F6FB8046664B1B6913F0010F0FD1644B9B6813F0020F0AD1DFF884910123C9F80830B72001F05AFB0023C9F80830404601F0E1FB53
:402980005A4B5B6913F4800F39D023690B2B1AD90C3B00D10C235349A1FB03214909642202FB1131504BA3FB0123DA0802EB82004300CB1A03EB02131B0403F4F81343F46F
:4029C00000133B4318E013B947F4402314E04549A1FB03214909642202FB1131424BA3FB0123DA0802EB82004300CB1A03EB02131B0403F47C133B4343F4800315E0236962
:402A00003849A1FB03214909642202FB1131364BA3FB0123DB0803EB830042008A1A02EB03131B0403F47C133B43227DD20502F400021343A2692B48A0FB021C4FEA5C1CEF
:402A40004FF0640E0EFB1C2C2749A1FB0C72D70807EB87084FEA4802C2EB0C0202EB0712120602F0E0621A43237F42EAC372236AA0FB03C77F090EFB1737A1FB07C34FEA0A
:402A8000D30C0CEB8C084FEA4803FB1A03EB0C1303F03F0C94F82430DB01DBB24CEA0307A36AA0FB03C040090EFB1030A1FB0031C90801EB810E4FEA4E039E46C31A03EBF0
:402AC00001131B0203F4F8533B4394F82C10C90389B20B4394F82D1043EAC17332602B60BDE8F8831F85EB51CDCCCCCC00002740F0B583B0002800F09C80044603683B2BC2
:402B000003D954214F4801F09BFA63683B2B03D955214C4801F094FAA368172B03D95621484801F08DFA2369013B062B03D95721444801F085FAA369013B0B2B03D95821CD
:402B4000404801F07DFAE369632B03D959213D4801F076FAA669E56905F5FA65771E0B2F04D94FF46C71384801F06AFAA5F5FA63642B04D940F2B131334801F061FA334B3C
:402B8000DF5D022E23D1A5F5FA63642B04D940F295312D4801F054FA15F0030F07D12C4BA3FB05235B09642202FB135353B9284BA3FB0523DB094FF4C87202FB13531BB950
:402BC000012302E0012300E0002303B101376369002B30D0BB4230D801AA69462046FFF7EFFC01F0AAFA05461A4B1B6913F0010F0BD1184B9B6813F0010F08D1154A9368BB
:402C000043F002039360002402E0134C00E0124C5CB9104B009A5A61019A9A619A6822F002029A603E2001F0FFF9284601F089FA04E00A4C02E0094C00E0084C204603B072
:402C4000F0BD00BFF8DB0810BCDB0810B0DB08101F85EB51000027400300A2000100A20070B5044618B98A21364801F0E9F901F064FA0546344B1B6913F0010F0CD1324BD6
:402C80009B6813F0020F07D12F4E0123B360B72001F0CAF90023B360284601F052FA2A4B5A699B69C2F3021101EB8101480002F00F0101442160150AC5F3021101EB81012B
:402CC000480005F00F0528446060C2F38051617369B1110CC1F3001085002844450001F00F012944A160C2F34051217309E0110CC1F3011000EB8000450001F00F0129449A
:402D0000A160C2F302622261C3F3011202EB8202510003F00F020A4462611A0AC2F3001188000144480002F00F020244A2611B0CC3F3031202EB8202510003F00F030B4403
:402D4000E36170BDF8DB0810000027402DE9F04182B0002800F0FF8004460E46012903D9CC21814801F06CF923683B2B03D9CE217D4801F065F92379012B03D9CF217A48AA
:402D800001F05EF9A3683B2B03D9D121764801F057F9237B012B03D9D221734801F050F92369172B03D9D4216F4801F049F9237D012B03D9D5216C4801F042F9A369013BB0
:402DC000062B03D9D721684801F03AF9237F012B03D9D821644801F033F9A36A013B0B2B03D9DA21604801F02BF994F82C30012B03D9DB215C4801F023F994F82430012BD2
:402E000003D9DD21584801F01BF994F82D30012B03D9DF21544801F013F901F08EF90546524B1B6913F0010F0CD1504B9B6813F0020F07D14D4F0123BB60B72001F0F4F89C
:402E40000023BB60284601F07CF9484B9B691B0CC3F3031202EB8202550003F00F031D4405F5FA65A76A07F1FF38B8F10B0F04D94FF46C713E4801F0E3F8A5F5FA63642B5A
:402E800004D940F2B1313A4801F0DAF8394B13F80880022F24D1A5F5FA63642B04D940F29531334801F0CCF815F0030F07D1324BA3FB05235B09642202FB135353B92E4B10
:402EC000A3FB0523DB094FF4C87202FB13531BB9012302E0012300E000230BB108F10108236A002B39D0434539D801AA69462046FFF7F2FC01F021F905461C4B1B6913F047
:402F0000010F0BD1194B9B6813F0010F08D1174A936843F002039360002402E0174C00E0164CA4B9012E05D0104B009ADA61019A1A6204E00D4B009A5A62019A9A620B4AFA
:402F4000936823F0020393603E2001F06DF8284601F0F7F804E00A4C02E0094C00E0084C204602B0BDE8F081F8DB081000002740BCDB0810B0DB08101F85EB510300A2004D
:402F80000100A2002DE9F04F8BB083468A4691469846149C159E3B2804D940F2D911924801F04EF8BAF13B0F04D94FF4ED718E4801F046F8B9F1170F04D940F2DB118A48AB
:402FC00001F03EF8631E0B2B04D94FF4EE71864801F036F8632E04D940F2DD11824801F02FF806F5FA65671E0B2F04D94FF46C717E4801F025F8A5F5FA63642B04D940F298
:40300000B1317A4801F01CF8794BDF5D022C23D1A5F5FA63642B04D940F29531734801F00FF815F0030F07D1724BA3FB05235B09642202FB135353B96E4BA3FB0523DB0989
:403040004FF4C87202FB13531BB9012302E0012300E0002303B10137B8F1000F00F0BD80B84500F2BC80CDF808B0CDF80CA001F064F80746604B1B6913F0010F0FD15E4B20
:403080009B6813F0020F0AD1DFF86CA10123CAF80830B72000F0C8FF0023CAF80830384601F04FF8544B5B6913F4800F05D100238DF81530CDF810901BE001238DF81530B1
:4030C000B9F10B0F0BD9B9F10C0F02D9A9F10C0300E04B46049301238DF8143009E0B9F1000F01D10C2300E04B46049300238DF8143008F1FF331E2B04D94FF459713B4872
:4031000000F09EFF631E0B2B04D940F26531374800F096FFA5F5FA63642B04D940F26631324800F08DFF022C03D804F10C02013D00E022461A2302FB0333304AA2FB032341
:4031400008EBD3032B4403EB95032A4AA2FB0525690901EB41014A00134403EBD515284AA5FB0223EA1A03EB52029208C2EBC202AA1A00D107220692CDF81C8008940996C3
:4031800001AA694602A8FFF71BFA00F0D6FF0546194B1B6913F0010F0BD1174B9B6813F0010F08D1144A936843F002039360002402E0144C00E0134C5CB90F4B009A5A61DB
:4031C000019A9A619A6822F002029A603E2000F02BFF284600F0B5FF02E00B4C00E00A4C20460BB0BDE8F08FF8DB0810BCDB0810B0DB08101F85EB5100002740CDCCCCCC34
:40320000254992240300A2000100A20030B58DB004460378012B04D94FF45F711E4800F00FFF002C34D00023009301228DF8042002938DF80C20616804918DF81420226921
:4032400006928DF81C302378012B04D02046FFF77DFA089001E0A368089301238DF8243062690A928DF82C308DF82D3018240B4D08E001216846FFF769FD0546013C3E20A3
:4032800000F0D2FE0DB1002CF3D114B9044D00E0024D28460DB030BDF8DB08100100A2000200A20070B50E46044620B940F2C9311A4800F0C5FE26B940F2CA31174800F0D1
:4032C000BFFE23780BB1A56803E02046FFF73EFA0546237E0BB1206A03E004F11800FFF735FA63696D0145EA832563681D43B26973695B0143EA8223B2681343E26A400191
:4033000040EA8220E26910439D4203D8834203D3002070BD002070BD012070BDF8DB0810704700BF2DE9F04188B004466846FFF797FC69462046FFF7B5FF002869D0029BC8
:40334000172B5CD9049B0133049300220292072B01D901230493059D01350595069F079E06F5FA6607F1FF38B8F10B0F04D94FF46C715A4800F064FEA6F5FA63642B04D991
:4033800040F2B131554800F05BFE554B13F80880022F24D1A6F5FA63642B04D940F295314E4800F04DFE16F0030F07D14D4BA3FB06235B09642202FB136353B9494BA3FBA3
:4033C0000623DB094FF4C87202FB13631BB9012302E0012300E000230BB108F10108454504D901230593069B01330693069B0C2B07D901230693079B0133079301E0013386
:4034000002936846FFF774FB04F11800FFF7FEFE60E0029B002B55D117230293049B013B04930BB901230493059B013B0593002B40D1069E079D05F5FA65771E0B2F04D9FA
:403440004FF46C71254800F0FBFDA5F5FA63642B04D940F2B131214800F0F2FD204BDF5D022E23D1A5F5FA63642B04D940F295311A4800F0E5FD15F0030F07D1194BA3FBCD
:4034800005235B09642202FB135353B9154BA3FB0523DB094FF4C87202FB13531BB9012302E0012300E0002303B101370597069B013B0693069B3BB90C230693079B013B67
:4034C000079301E0013B02936846FFF711FB2046FFF79CFE08B0BDE8F08100BFBCDB0810B0DB08101F85EB51704700BF014B986B704700BF0000274010B5044630F0070340
:4035000004D040F2FE41034800F09AFD024BDC62DB6A10BDF8DB08100000274010B5044630F0070304D040F21351034800F088FD024B5C6310BD00BFF8DB08100000274038
:4035400070B506460D46FFF7D1FF0446FFF7D4FF14F0010F01D0FDF7F7F914F0020F06D01DB13046FFF7DEFE01E0FFF7D9FE14F0040F01D0FFF7B8FF70BD00BF036813F443
:40358000006F01D0802200E04022D0F80832C3F30803934203D0C0F84012012070470020704700BF002800F03081F8B50546002900F02D810B78012B03D19948854200F061
:4035C0002881087F18B19648854240F0248116460C46012B03D94C21924800F031FD6378012B07D9052B05D0022B03D04D218D4800F026FDA378032B03D94E21894800F0A6
:403600001FFD2378012B07D16368023B0E2B03D95021844800F014FDA36933F00F0303D05121804800F00CFDA368043B0C2B03D952217C4800F004FDE368043B0C2B03D90B
:403640005321784800F0FCFC6378022B07D0A268E3689A4203D05421724800F0F1FC636A33F06D0303D056216E4800F0E9FCE36A33F0730303D057216A4800F0E1FC236BCC
:4036800033F4206303D05821664800F0D9FC6378A778052B07D8DFE803F0060305060603022700E00027A368082B04D8E368082B03D9002302E0002300E0012313B14FF4EA
:4036C000006200E00022217F11B14FF4807300E000231A436368013B03F00F03134343F080732B60236A2A6812F4006F01D0802200E04022934203D365214A4800F0A0FCC3
:40370000A36A2A6812F4006F01D0802200E04022934203D36621434800F092FC237D0BB9012100E000216278052A01D1022300E000230B43E17C09B1102100E000210B4316
:40374000617C09B1202100E000210B432178012902D14FF0004100E000210B43BF0007F00C073B43A169090201F470610B43120602F0407213432B62237C13B14FF4807216
:4037800000E00022A17C11B14FF4007300E000231A43A368013B03F00F031343C5F8003394F82030C5F80433237C13B14FF4807200E00022E368013B03F00F031343C5F877
:4037C000003294F82830C5F80432636A03F06D03C5F8C83FE36A03F07303C5F8883F236B03F40073C5F8003F236B03F40063C5F8403F0023C5F8C83E7EB118463360B36160
:40380000F360F361084B3362F8BD084870470748F8BD0648F8BD0548F8BD0020F8BD00BF0000694078DC0810EFCDAB000140AA00036823F00043036019B100220A60CA6095
:403840008A61036A002B04DB0023C0F8C83FC0F8883F704700F17043B3F5801F01D2580A704700F16C43B3F5004F03D25B0A43F48030704700F16A40B0F5004F03D2400ADA
:4038800040F4003070474FF0FF30704710B50446FFF7E0FFB0F1FF3F04D0C4F308041CB1002010BD002010BD012010BD1F4B98422DD00CD840282ED003D8E8B1102828D0AA
:4038C0002FE0802829D0B0F5807F28D029E0184B984228D006D8B0F1204F0DD0154B984212D01EE0144B98420AD00133984209D0023B984215D101E0002070470F4870479C
:403900000F4870470F4870474FF4A0007047074870470D4870470D4870470D487047034870470C4870474FF4A400704706005200010000F0090000A0040000F001005200C3
:403940000200520003005200010050000200500005005200FF00520008B50C4B1B69002B12DB0B4B1868FFF7A1FF0122094BC3F88C24084BD3F80C34002BFAD1054BD3F8E6
:403980008C34002BF5D108BD034808BD20002340AC780208000025400200500000B583B05523ADF80030002301930C496846FEF72FFABDF90030002B08DB590903F01F03A1
:4039C000012202FA03F3064A42F82130022205490120FEF7D5FC03B05DF804FB3147020800E100E00547020838B505460C46FFF74DFF28B334B3FDF7DDF9134B134A1A6051
:403A000000225A609D60DC60114A13691169C1F307221B0E591C02FB01110E4B03FB01F10D4B1B680D4AA2FB03239B09B1FBF3F101F5195108314FF4807007F0E5FA38BD8D
:403A4000074838BD064838BDAC7802080001000500002140C0EA2101D8420208D34D62100600520008B5FFF777FF08BD10B50446FFF70CFF10B3FDF79DF9114B4FF0E05238
:403A80001A605C6000209860D8600E4A13691169C1F307221B0E591C02FB01110A4B03FB01F10A4B1B680A4AA2FB03239B09B1FBF3F101F6980107F0A7FA10BD054810BD31
:403AC000AC7802080000214060F59000D8420208D34D62100600520038B505460C46FFF7D5FE28B334B3FDF765F9134B4FF0C0621A604FF483725A609D60DC600F4A1369A4
:403B00001169C1F307221B0E591C02FB01110C4B03FB01F10B4B1B680B4AA2FB03239B09B1FBF3F101F56171002007F06DFA38BD064838BD054838BDAC78020800002140C6
:403B4000808D5B00D8420208D34D621006005200084B4FF204015A5822F00F0242F002025A5003F570431A6822F00F0242F002021A60704700002140084B4FF204015A581E
:403B800022F00F0242F003025A5003F570431A6822F00F0242F003021A6070470000214004494FF204028B5823F4E04343F4C0438B5070470000214004494FF204028B5893
:403BC00023F4E04343F480438B5070470000214008B50E2000F0B8FA4FF0B0535B7813F0FF0F04D04FF0B0535B78DBB200E02123222B02D818B9012008BD012008BD00206D
:403C000008BD00BF10B504460E2000F09DFA48B9114A936923F08073240604F080741C43946110BD0CB10D4A00E00D4A01210D48FEF744F960B90B4B1B69002BFBDB094B6F
:403C4000DB6803F07F43B3F1204F03D0064810BD054810BD002010BD00F025400101003001000030200023400400420070B50446022806D0052804D040F23761224800F02F
:403C8000DFF9FFF7A5FF00283AD000F056FA0646022C10D10120FFF7B5FF0546C0B9FFF757FF1A4A536923F0070343F003035361FFF776FF0CE0154A536923F0070343F0FE
:403CC00003035361C82000F0AFF9FFF775FF002595B90E494B6923F0070204F0070313434B61052C08D1C82000F09EF9FFF744FF0020FFF787FF0546304600F022FA00E08B
:403D0000034D284670BD00BFB8DC08100000264003004200F8B50446012804D94FF4EA61294800F08DF9FFF753FF002849D000F004FA0746BCB94FF0B05393F84067F6B2BB
:403D40000120FFF75FFF054608BBFFF701FF1F494FF61C728B5823F01F0343F00B038B50FFF71EFF13E04FF0B05393F84167F6B216494FF61C728B5823F01F0343F00B03AD
:403D80008B50092000F050F9FFF716FF0025A5B90E494FF61C728B5823F01F0306F01F061E438E50012C08D1092000F03DF9FFF7E3FE0020FFF726FF0546384600F0C1F9C2
:403DC00000E0034D2846F8BDB8DC0810000026400300420038B5044600F0AFF92CB1184B5B681F2B03D9002302E0002300E001231D460BB3E368E3B12368E3B1104B99687A
:403E00000B46002203E0A34204D01A465B69002BF9D100E000257DB111B9094B9C6000E05461226100236361054A53680133536002E0002500E0002500F083F9284638BD42
:403E4000BC78020838B5044600F077F9144B5A680AB399680B4602E0A34204D05B69002BFAD1002500E00125B5B1A14206D14B695BB10B498B600021196106E019695C69D6
:403E80004C61596909B11B690B61013A044B5A6012B99A6000E0002500F053F9284638BDBC78020870B584B005460E46042804D940F69501284800F0C3F8731EDBB2012BCC
:403EC00008D9042E06D0082E04D040F69601224800F0B6F8042E01D0012E1CD11F4B9C68002013E023799D420FD1A3680BB133420BD1E3685A6802929B68039304A800F809
:403F00000C6D23689847154BDC6064690CB3144B9842E7D11DE0114BDC68022E01D104B12469002011E023799D420DD1A3680BB1334209D1E3685A6802929B68039304A83E
:403F400000F80C6D23689847246914B1044B9842E9D104B070BD00BFB8DC0810BC780208FF00420070B50546012804D940F24D111D4800F065F81D4B5B682BB10121002065
:403F8000FFF790FF044600E000242CBB00F0D5F80646164B5B681BB104210020FFF782FF134A136923F004031361012D01D030BF07E020BF0D4B1B7803B120BF01220B4B80
:403FC0001A70304600F0BDF8084B5B684BB108210020FFF767FF04E002210020FFF762FF044C204670BD00BFB8DC0810BC78020800ED00E0FF00420010B5044605E0084B06
:40400000186800F091F8A4F50044B4F5004FF6D8044B186800FB04F000F086F810BD00BFF0420208EC42020808B5034B1B7800FB03F000F079F808BDE842020801BEFEE72E
:4040400038B50D46044C18220146204605F022FBA5610020FFF7F2FF504B02080122014B9A60704700002540044BD3F800085B6813F0FF0F01D040F48020704700002640C8
:40408000FEE700BF08B50268254BDA6142681A6282685A62C2689A620269DA6242691A6382695A63C2699A631E4A916AD963D16A1964516A5964516B9964926BDA64F1EE57
:4040C000103A13F0900F27D0026A154B1A65426A5A65826A9A65C26ADA65026B1A66426B5A66826B9A66C26BDA66026C1A67426C5A67826C9A67C26CDA67026DC3F8802097
:40410000426DC3F88420826DC3F88820C26DC3F88C20026EC3F89020FFF7B2FF08BD00BF504B020800ED00E00230800803D001300238FCD100BF00BF7047EFF3108072B67D
:40414000704780F31088704710B504460F2803D9E4210648FFF774FFA00200F1402000F51010006800F00F0010BD00BFF8DC081010B50378012B02D0082B29D02EE01B4B23
:404180001B78012B2CD00320FDF7ACFF184B984228D0FFF7D2FF174B186002200AF0F6FA04460AF0FEFA022C05D1032805D0052805D1002404E0104C02E0002400E00E4CB9
:4041C0000D4B9C420FD10B4B1868FFF7BAFF0AE0084B1868FFF7B5FF002404E0064C02E0054C00E0044C204610BD00BFC80E030801018800EC780208FF00420008B50378BC
:40420000022B1CD0082B14D0012B1ED1124B1B78012B1CD0FFF791FF104B586002200AF0B5FA022815D00D4B5868FFF78AFF0C4808BD0A4B5868FFF784FF002008BD074B43
:404240005868FFF77EFF064808BD054808BD044808BD002008BD00BFC80E0308EC780208FF00420010B5044C2046FFF7EBFD04F11800FFF7E7FD10BD0C44020810B500284D
:404280002FD01A4A9060C36A03B1D3600024184B1C70184B1C70184B1C60184B1C605C609C60DC601C824FF6FF72154B1A8044222146144804F048FD07E004EB04129300B4
:4042C000104A1344FF221A640134002CF5D000240D4B1C7000F0C6FA0C4B1C700C4B1C7000E00C4CFDF716FD204610BDEC780208D80E0308DC0E0308380F0308E00E0308B9
:40430000C40E0308F40E0308DD0E0308C70E0308CC0E03080100160010B590B0344B0CAC186859689A68DB680FC42822002102A804F00AFD2F4B02930CAB049342F6602304
:40434000ADF8143004238DF816302B4A92681269069240F64A420792FB22ADF82020ADF8222003228DF824208DF8253006238DF8263010238DF828308DF829305123ADF8C9
:404380002A3001238DF82E301C4C2046FFF722FD04F11800FFF71EFD0AF0F4F908A80AF04BFA034600BB164B039302A80AF00CFA0346B0B90122134B1A700023124A137061
:4043C000124A13700C4B9B681A6A00929B6ADB88ADF804300823ADF80630684613F094FA034600210A4A1160184610B010BD00BF38DD0810215F0810EC7802080C44020882
:40440000E44B0208C80E0308D00E0308D10E0308380F030818B1034A1061002070470248704700BFEC7802080100160008B5044B1B689847034B1B6803B1984708BD00BF44
:4044400018790208FC78020808B510B1034A52689047034B1B6803B1984708BD18790208FC7802082DE9F04FADF5077DB1F1805F03D38D189D4CA54210D9B1F1A05F03D3DE
:404480008D189B4CA54209D99A4CA14240F20F818D1804F20124A54200F20E81049317460E468046944B5B6913F0804F10D0924B5C6904F00704022C24D10520FFF7D6FBE1
:4044C00000908E4B9842F8D002940123039323E04FF61C73884AD35803F01F034FF0B05292F84027D2B2D31A18BF012303937BB90120FFF70FFC814B9842F9D000900523C7
:40450000029309E00294012303930023009303E00523029300230093794B009A9A4204D140F2D5117748FFF78BFD06F17046730A01935C0200210320FDF74CFD0028F9D1AE
:404540000546824683E0B44213D3BD4211D218F805200DF1180E0EF8032041B904F180521278D2B218F805E0724500D00121013506E004F1805212780DF1180E0EF803205E
:404580000134013301E000210B46B3F5007FDAD3002959D0009B002B56D1049B002B48D14FF0C80B05955D46DDF804B00BF500294FEA49294846FFF759FA8246013D01209F
:4045C000FFF732FD0AF4A403B3F5A40F01D1002DECD1059D4C4B9A4505D1FFF743FA4B4B9842FAD08246BAF1000F17D14FF0C80B5B46A3461C4606A94846FFF76DFA8246B5
:40460000013C0120FFF710FD0AF4A403B3F5A40F03D1002CEFD15C4600E05C463A4B9A4511D1FFF71FFA394B9842FAD0824601200AE0019B03F5002006A94002FFF7D4F97D
:404640008246012000E00120019B01330193009B23B9BAF1000F01D1BD4294D308B1FFF7FDFC00210320FDF7F9FC0028F9D1009B33BB214B5B6913F0804F09D0029B022B8E
:4046800006D10220FFF7F2FA00901C4B9842F8D0194B1B6813F4000F12D1039B83B90020FFF738FB0090154B9842F8D008E000230093DFF86CA003E000230093DFF860A000
:4046C000009B63B9124B9A450BD004339A4508D0BAF1000F01D1002004E00E4802E00E4800E00E480DF5077DBDE8F08F0000101000800014FF070016000026400400420084
:404700000300420048DE08100100500002005000020052001300160012001600010016000600520008B50023FFF79CFE08BD00BF70B5C0B006460C4615464FF48072084937
:40474000684604F0F6FA05E016F8012B6A401DF80250013C002CF7D1284640B070BD00BF48DD081008B50022FFF7E2FF08BD00BF08B5FFF7E2FC08BD08B5FFF7E2FC08BDD9
:4047800008B50120FDF7F0FE08BD00BF08B5FFF7F7FF08BD08B50120FDF7B6FE08BD00BF08B5FFF7F7FF08BD08B5094B58601960012208491046FDF7E3FD034628B90022A3
:4047C00005490120FDF7DCFD0346184608BD00BF18790208494408102D44081038B515460B46024601210020FDF76AFD044618B129460120FDF7F4FD204638BD704700BFB2
:40480000704700BF00207047004870471100160000487047110016000048704711001600004870471100160000487047110016000048704711001600004870471100160021
:404840000048704711001600004870471100160000487047110016000048704711001600704700BF08B5002335E003EBC3014A001C498A5AAAB903EB0312910020311A4A44
:4048800011440022C1F80620C1F80A20C1F80E204A8203EBC3014A0012490A444FF4C051918003EBC3014A000E490A44D2888AB903EB03118A0002F130010B4A0A44002150
:4048C0005160118103EBC3014A0006490A4441F6010151810133002BC7D0044802F0BEF908BD00BFE00E0308F40E03089078020800286AD02DE9F0410746C368012B03D921
:40490000354A364B1A605CE00668456805F17045324B1B68324A93420ED001D8ABB905E02D4A934202D0123293420ED1BA682B4B5A604FF000083EE0284B5B6843B9002289
:40494000264B1A604FF0010835E04FF0000832E08268D31A1E441D444FF000082BE025F4FF7424F00104641B04F500749C4228BF1C460023224605F180513046FFF772FDC5
:40498000164B186010F4003F01D04FF0010826442544124A53681C1B5460FB68012B08D128B90F4A0D4B1A604FF0010801E04FF0010809F0E9FE094B5B6813B1B8F1000F95
:4049C000CDD0064B1868BDE8F081034A034B1A60024B1868704700BF01001600247902080100140070B592B0584B1B7813F0010F11D012A8072300F8343D0BF0E1F803460D
:404A000050B952490A7802F0FE020A7012F0020F02D04F4B00E00023002B47D14B4A127812F0020F42D000240594069408940322079233E0474A32F81420ADF800209DF8CE
:404A4000012012B94449895C00E00021012924D94249895C012920D102EB4202404D50190590404B1B681A693A4E16F8143003EB430303F648431344023306930221FFF708
:404A800071FE06EB4406737803EB43031D44A87005A8FFF72DFF034610B90134002CC9D023B92A490A7822F002020A70002B44D1264A127812F00C0F3FD012F0080F1AD00F
:404AC000002102910391049105A80190254B1B681B6903F64A4302933322039204F034F901A8FFF705FF034638BB18490A7822F008020A7021E001AA0023ADF804308DF879
:404B000006300693079308930592164B1B681A69154B1B7A03EB430303F648431344023306930323079305A8FFF7E2FE034620B906490A7822F004020A700C4A934202D1DB
:404B40000021024A1170184612B070BDC70E030801001400C40E0308D00E0308CC0E0308D40E0308F47802082479020812001600F8B5022872D8002972D10022134606E03A
:404B80003B4CE45C012C01D90132D2B20133002BF6D0012A0CD1374B1B681C6801EB8102930023445B681B79023BDBB2012B59D8314B1B78002B57D1304B1970E0B92D4F58
:404BC0003C68236801EB8105AA009D186668C1EBC1014B001E44B18829822168114449686468E45A0C8039680C682244526849680B445B8853801EE001281CD11D4F3C68B4
:404C0000236801EB8105AA009D186668C1EBC1014B001E44B1892982216811444D68616819440989298039680C682244526849680B445B895380124B18700E4B1B68186829
:404C40000E4B1B7803EB83039A0010440EF0F0F9034650B90121084A117006E0094B04E0084B02E0084B00E0084B1846F8BD00BFD00E0308F4780208D10E0308C60E0308E5
:404C8000DD0E03080100160002001600FF00160070B439B9144B1B681B689968CE7F00231D460EE0104B1B681B68D968CE7FF6E7CA5C52B10133CC5C1B2C01D0134400E0DD
:404CC0000125B34201D2002DF2D05DB101338279CA54002204E0D4180134855C0D550132052AF8D970BC7047F478020870B5044612F024FE054620BB134B1968086A2289D1
:404D000002EB82029300143B03445A6812F0007F17D0E67B1B695A68CB69D21A06EB4606B318A28821680948184404F002F8E37B074AD35C012B04D1064A137843F00203A0
:404D40001370284670BD00BFF4780208D40E0308CC0E0308C70E030830B587B002891A4B1B685B699B889A4229D1044601AB07C883E807000022ADF81020A289ADF81220B2
:404D800040228DF814201846FFF7B0FF054680B923681B7803F002039BB22BB10B4B1B6821460B48984704E0084B1B68214609489847094A137803F0FE03137000E00025F5
:404DC000284607B030BD00BFF4780208F87802080500010006000100D80E03084288531E9BB20A2B1AD84178D1B910B40F4B1868046A02EB82029300143B23445A6812F078
:404E0000007F0FD01B695A68C369D31A01EB41011944074B5B5A1380002004E0012070470120704700205DF8044B7047F4780208D40E030810B483B0ADF804000023FF211B
:404E400010E003EB031082001F480244126CFF2A07D01E4810F812009DF80420904200D1194601330BB9FF29EBD0FF2923D11EE002EB02108300144803441B6CFF2B14D1A9
:404E80000FE0124810F813409DF80400844206D102EB021081000C4801440B641146013300E000230BB9FF29EBD0013200E000220AB9FF29DCD0FF2901D0002000E004484A
:404EC00003B05DF8044B7047F40E0308C40E03080300160070B582B0ADF80400C5B2FF2D1AD122E004EB0413244A02EB83031A6C234B13F812309D420CD104EB04161F4BBA
:404F000003EB860644220021304603F01DFFFF2333642146013401E00024FF210CB9FF29E0D0FF2914D0002013E044220021134803F00AFF002307E003EB03110F4A02EB85
:404F40008102FF2111640133002BF5D0002000E00C4800230EE00A4A12F813109DF80420914206D1064AFF2102F8131002EB430251700133002BEED002B070BDF40E030823
:404F8000C40E03080700160082B0ADF80400012000230EE003EB03118A0008490A44116C074A12F811109DF80420914200D1184601330BB90128EDD002B07047F40E0308B7
:404FC000C40E030830B587B0ADF80400C0F3072010B9284B1B5C00E00023022B01D0072B17D10198FFF726FF05460198FFF7CCFF044600220AE002EB420104EBC4035B0077
:4050000003EB410300201C4958500132022AF2D900E01A4D5DBBBDF80430ADF8143004EB0413174A02EB830301225A874FF6FF729A87D3F83A000490FFF714FC04A810F0B6
:40504000F3FE054698B9BDF804301B0A03D10321084AD15405E023B94FF461710948FEF7EFFF04EB04140122054B03F82420284607B030BDD00E0308E00E0308FF0016005A
:40508000F40E030884DE081070B504460088FFF77BFF237E012B37D100EB001293001B4A13445A6802EB4202510000EBC00253000B44174A13449A8841F601039A4223D169
:4050C000228942F605239A4219D100EB001293000E4A1344DB8E6BB9E688114603011D18AA0015460A44D68622792B460B4483F8342004E0074B1B68214607489847074A9D
:40510000137803F0FE03137070BD00BFF40E0308E00E0308F87802080D000100D80E030810B504460088FFF72FFF00EB00129300114A13445B68012B1DD1A28842F60213B1
:405140009A4213D100EB001293000B4A13441B8F3BB9628800EB0010830007490B441A8704E0064B1B68214605489847054A137803F0FE03137010BDF40E0308F8780208FD
:405180000E000100D80E030810B504460068FFF7FBFE00EB00129300174A13445B68012B29D1A3683BB1020102449300124A13449A6801329A6000EB001293000E4A134464
:4051C0009B689BB90201024493000B4A1344DA8E013262805A6802EB4202510000EBC00043000B44054A13445B88A380044A137803F0FE03137010BDF40E0308E00E030803
:40520000D80E030810B50446C068FFF7BDFE90B900EB00139A00084B1A44D28E23899A4209D1064B1B68214605489847054A137803F0FE03137010BDF40E0308F878020835
:4052400007000100D80E030810B504460088FFF79BFE237E012B40F0BE8000EB001293005D4A13445B68002B40F0B580238942F60322934257D008D842F60122934228D0E6
:405280003CD8B3F5285F0FD0A0E042F6A622934273D042F6C922934200F0848042F60422934240F0938053E000EB001293004A4A1344DB8C3BB9E28800EB00108300464952
:4052C0000B44DA8482E0454B1B682146444898477CE000EB001293003F4A13441B8D3BB9E28800EB001083003B490B441A856DE03A4B1B6821463A48984767E000EB001297
:405300009300354A13445B8D3BB9E28800EB0010830031490B445A8558E0304B1B6821462F48984752E000EB001293002A4A13449B8D3BB9E28800EB0010830026490B4456
:405340009A8543E0254B1B682146254898473DE000EB00129300204A1344DB8D3BB9E28800EB001083001C490B44DA852EE01B4B1B6821461A48984728E000EB0012930049
:40538000154A13441B8E3BB9E28800EB0010830011490B441A8619E0104B1B6821461048984713E000EB001293000B4A13445B8E3BB9E28800EB0010830007490B445A8681
:4053C00004E0064B1B68214605489847054A137803F0FE03137010BDF40E0308F87802080D000100D80E03080378032B54D130B583B004464378807843EA0020FFF7C4FDD7
:405400000546002846D100EB00129300234AD35C002B3FD0B4F80130ADF800309DF8013013B91F4AD35C00E00023033B032B1AD8DFE803F002080E141A4B1B68611C1A4892
:40544000984710E0174B1B68611C184898470AE0144B1B68611C1648984704E0114B1B68611C1448984705EB0515AB0000210B4AD154B4F80130ADF804309DF805301BB917
:405480000221074AD15405E023B94FF461710A48FEF7D6FD03B030BD704700BFF40E0308D00E0308F878020808000100090001000A0001000B00010084DE081000B583B051
:4054C0000023ADF804308389ADF800300389ADF8023012238DF80430084B1B7813F0010F09D129B18DF80510684611F053FB02E0C06811F06FFB03B05DF804FBD80E0308CD
:4055000010B4044688B10023194606E0104A52F82320944200D1012101330D4A1279934206D20029F2D0002003E00021094800E0002050B949B9064B1B792BB9044A42F88D
:4055400023400133137100E003485DF8044B70473C0F0308010016000300160070B506460D460020044606E0084B53F824302946304698470134054B1B799C4204D2044B1E
:405580001B7813F0010FEFD170BD00BF3C0F0308D80E030883792BB100207047C25C32B9013300E00023052BF8D9002070470120704700BF2DE9F04385B005460023019374
:4055C000029303930389ADF804308068FFF7DCFC04462B89ADF80030C3F3072313B9574AD35C00E00023032B40F0A480002C40F0A18004EB0413524A12F82330002B00F0FA
:405600009980AF88062F02D0142F40F08D80B5F8068000267FE04B4A137843F0010313702B689A190292995B04EB0413444A02EB83035B8F99425FD304EB041302EB8303BC
:405640009B8F99425AD8062F4DD143E001238DF80C3009EB490304EBC402520002EB4303394A13449888029B9A8890422FD109EB490004EBC40E4FEA4E0E0EEB4000DFF8F0
:40568000C8E03EF8000058B909EB490204EBC401490001EB420219684EF80210012116E0B9F1010F0DD809F1010303EB430004EBC4035B0003EB4003234803449B889A42DD
:4056C00005D0224B1B6801A921489847012109F1010902E04FF000094946B9F1020F0ED80029B3D00BE002238DF80C3001A91948FFF734FF002102E0002100E0002149B99B
:40570000104B1B7813F0010F04D0104B1B6801A9114898473E444645FFF47DAF094A137803F0FE03137005E0084B1B6805F108010A48984705B0BDE8F08300BFD00E0308F3
:40574000F40E0308D80E0308E00E0308F87802080C0001002F01010012000100080001002DE9F04F8BB007468068FFF70DFC002840F0F280064600EB0013794A12F8233066
:40578000002B00F0E980BD88B7F806903C683B89ADF80430C3F3072313B9724AD35C00E00023052B4DD13B89ADF80C30002640E06D4A137843F0010313702378627843EA29
:4057C0000223ADF80E30A3788DF81030E378227943EA0223ADF81230671D152D0DD102238DF8243005AF234653F8050F59689A68DB680FC704F115070BE0072D09D101236A
:405800008DF824306379A27943EA0223ADF81430E71D152D01D0072D09D103A8FFF714FD03A8FFF731FC03A95048FFF797FE2E443C464E45BCD34C4A137803F0FE0313703B
:405840008AE03B89ADF80830C3F3072313B9454AD35C00E00023042B7ED13B89ADF80C304FF0000BD8466DE03F4A137843F0010313702378627843EA0223ADF80E30A37845
:40588000E27843EA0223ADF810302379627943EA0223ADF8123004F1060A062D1AD13B89ADF8003002238DF82430684610F05CFB06EB06142A4B03EB84040C340DF10C0E9A
:4058C000BEE80F000FC49EE8070003C422804FF0010B31E0082D2FD101238DF82430A379E07943EA0020ADF8140004F1080A002120E001EB410306EBC602520002EB43038B
:405900001B4A13449B88834213D101EB410306EBC602520002EB4303154AD35A4BB901EB410106EBC6035B0003EB41010498505002E001310229DCD903A90E48FFF70EFE3A
:40594000A8445446C84502D2BBF1000F8CD0064A137803F0FE0313700BB0BDE8F08F00BFF40E0308D00E0308D80E030831010100E00E030830010100F0B589B00446806864
:40598000FFF702FB0023ADF80A302389ADF80430C3F3072313B9284AD35C00E00023062B48D1002846D100EB0010244B13F82030002B3FD0A688A37A8DF81C302289ADF829
:4059C0000820012B01D1042700E012272468002529E01B4A137843F0010313702378627843EA0223ADF80A309DF81C30022B0BD10DF10C0E234653F8020F59689A68DB6866
:405A0000AEE80F00123406E0A378E27843EA0223ADF80C30043402A8FFF782FB02A90948FFF79CFD3D44B542D3D3054A137803F0FE03137009B0F0BDD00E0308F40E030842
:405A4000D80E03083201010030B589B0ADF804000D460198FFF798FA0446002305930693BDF80430ADF814300795464A137843F0010313700023ADF81630ADF8183045B9EC
:405A800004EB0413404A02EB830300225A609A60012505A8FFF778FB05A93C48FFF75EFDBDF8163013B1BDF818305BB904EB0413354A02EB83035A6801325A6000229A60BB
:405AC000079201E001230793BDF8161004EB04132D4A02EB83035B8F99420DD904EB0412294800EB8202928F914205D8BDF81820934201D8914207D904EB0413224A02EB95
:405B000083035B68022BB0D904EB04131E4A02EB83035B68022B16D8DDF816000390BDF80430ADF8103003A810F012F938B3184B1B6801A91748984704EB0414A300002121
:405B4000114AD1541BE0BDF80430ADF80C30C3F307231BB90721104AD15405E023B94FF461710E48FEF76CFA094B1B6801A90C48984704EB0414A4000022034B1A5509B007
:405B800030BD00BFD80E0308F40E030833010100F87802080B000100D00E030884DE08101300010030B589B0ADF804000D460198FFF7EAF9044645B100EB00133E4A02EBCA
:405BC00083035A6801325A600EE000EB00133A4A02EB830300225A6006E004EB0412364901EB82020133536004EB0413324A02EB83035B68022B17D803EB430204EBC40135
:405C0000490001EB42022D49885A04EB04122A4901EB8202528F9042DFD304EB041201EB8202928F9042D8D8022B23D800220392049205920692079203EB430304EBC40208
:405C4000520002EB43031D4AD0580290BDF80430ADF81D3002A810F09FF850B3184B1B6801A91848984704EB0414A3000021124AD1541EE0144B1B7813F0100F04D0104B03
:405C80001B6801A911489847BDF80430ADF80830C3F307231BB906210D4AD15405E023B94FF461710B48FEF7CBF900210198FFF7CBFE09B030BD00BFF40E0308E00E03089C
:405CC000F87802080A000100D80E030811000100D00E030884DE081030B589B0ADF804000D460198FFF750F9044645B100EB00133E4A02EB83035A6801325A600FE000EB05
:405D000000133A4A02EB830300225A60DA8106E004EB0412354901EB82020133536004EB0413324A02EB83035B68022B17D803EB430204EBC401490001EB42022C49885AD7
:405D400004EB0412294901EB8202528F9042DFD304EB041201EB8202928F9042D8D8022B23D800220392049205920692079203EB430304EBC402520002EB43031C4AD05886
:405D80000290BDF80430ADF81D3002A810F094F850B3184B1B6801A91748984704EB0414A3000021114AD1541EE0144B1B7813F0100F04D00F4B1B6801A911489847BDF8CA
:405DC0000430ADF80830C3F307231BB905210D4AD15405E023B94FF461710B48FEF730F900210198FFF7DEFE09B030BDF40E0308E00E0308F878020809000100D80E030848
:405E000010000100D00E030884DE081000B585B0ADF804000198FFF7B7F800285AD100EB00132E4A12F82330002B53D0BDF80430ADF80830C3F3072313B9294AD35C00E0B5
:405E40000023033B032B45D8DFE803F00227313B244B1B7813F0100F04D0234B1B6801A922489847BDF80430ADF80C30C3F307231BB904211A4AD15405E023B94FF4617149
:405E80001B48FEF7DDF800210198FFF725FF154A137803F0FE0313701CE001210198FFF71BFF104A137803F0FE03137012E001210198FFF777FE0B4A137803F0FE031370EE
:405EC00008E001210198FFF7BFFD064A137803F0FE03137005B05DF804FB00BFF40E0308D00E0308D80E0308F87802080F00010084DE081010B504460088FFF745F858B96D
:405F000000EB00139A00054B9B5C2BB163790A2B02D12088FFF77AFF10BD00BFF40E030870B58EB004460D46C14A137843F00103137045F20503984200F0C48363D844F201
:405F40000403984200F0B2812AD841F20303984200F099810CD841F20103984200F0408100F24681B0F5805F00F0A78000F029BC42F20403984200F0098106D841F2040388
:405F8000984200F0198400F01CBC43F21203984200F0F180B0F5804F00F0568300F011BC44F21003984200F0F98116D844F20703984200F0F38105D844F20603984200F054
:405FC0003882FEE344F20803984200F02E8244F20A03984200F0DF81F3E345F20103984200F0668204D8B0F5A04F00F08183E8E345F20203984200F0EB8245F20303984262
:4060000000F01883DDE345F20F03984200F0498324D845F20A03984200F05C830CD845F20703984200F06083C0F0508345F20903984200F07B83C4E345F20C03984200F036
:406040000683C0F0768345F20D03984200F0748345F20E03984200F02183B2E345F21403984200F0248311D845F21103984200F06683C0F0198345F21203984200F04083D0
:4060800045F21303984200F03E839AE345F21703984200F00F8305D845F21603984200F051838EE345F21803984200F0168346F20103984200F0F98183E35E4B1E68304662
:4060C000FFF768FA60B130460EF096F8594E00213068FEF7DDFD01213068FEF7D9FD37E0554B1A68936A1B791BB34FF0B05191F8043603F03F0391F8050600F03F0043EAC1
:40610000801391F8030600F01F0043EA003391F8001601F07F0143EA4143126B1370464A1168096BC3F3072048701268126B1B0C9370414E3368186B0EF05EF8336800211A
:40614000186BFEF7A5FD33680121186BFEF7A0FD394B1B68986A02300EF03CFC0023079308937F238DF81C3007A80EF069F80222324B1A7025E30023304A1370304A137099
:406180000A20FDF739FFFEF76DF81AE32D4B1B6813F0010F40F015830023ADF81C308DF81E30254E33689B6A93F900308DF81C3007A80EF05FF833689B6A93F901308DF8EF
:4061C0001C3001238DF81D30FF238DF81E3007A80EF050F81B4A136843F001031360F0E20846FFF701F929462046FFF7B7F9E8E24978154B1B88ADF81C3000232BE0134A54
:4062000032F81320ADF810209DF8112012B91048825C00E00022012A1CD90C4A12F81320914217D1094A32F81330ADF81C3014E0D80E03083C440208F4780208C80E03087E
:40624000D10E0308380F0308BCDE0810C40E0308D00E03080133002BD1D09DF81D30FF2B05D104D14FF47271A948FDF7E9FEBDF81C30ADF82830ADF82430C3F30723297849
:40628000A44AD1549DE20B78002B40F09A820B7A33B9A14B0022DA809A80A04A1A604B609F4A137803F0FE0313708AE249799D4B1B88ADF81C30002319E09B4A32F813205D
:4062C000ADF814209DF8152012B99848825C00E00022012A0AD9944A12F81320914205D1914A32F81330ADF81C3002E00133002BE3D09DF81D30FF2B05D104D14FF4727194
:406300008348FDF79DFEBDF81C30ADF82C30ADF81C30C3F307236978854AD154EB78002B40F04F8269797F4B1B88ADF81C30002319E07D4A32F81320ADF818209DF81920A1
:4063400012B97A48825C00E00022012A0AD9764A12F81320914205D1734A32F81330ADF81C3002E00133002BE3D09DF81D30FF2B05D104D14FF472716548FDF761FEBDF85B
:406380001C30ADF83030ADF81C30C3F307230121684AD15415E2FFF7E1F812E22B78002B3FD1AB78012B02D10022634B1A7069785C4B1B88ADF81830002319E05A4A32F8AC
:4063C0001320ADF81C209DF81D2012B95748825C00E00022012A0AD9534A12F81320914205D1514A32F81330ADF8183002E00133002BE3D09DF81930FF2B05D104D14FF4FD
:4064000072714348FDF71CFEBDF81830ADF83430ADF81830C3F30723FF2B02D0A978474AD1540222464B1A70CBE10222444B1A70C7E1FFF793F83A4B1B7813F0010F00F0CE
:40644000C0813D4B1B78012B03D102223A4B1A70B7E1032B03D10022374B1A70B1E1022B40F0AF810022344B1A70364B1B685B68354A1178C1EBC10203EB42039A79002ACD
:4064800000F09F819B88002B00F09B812F4B1B78002B40F096810120FEF76AFB002840F090810122244B1A708BE1FFF757F888E10B88ADF800309DF8013013B91B4AD25C4C
:4064C00000E00022012A12D12978174A12F8132091420CD11BB90721144AD15443E0002B41D14FF461710A48FDF7AAFD3BE02B78687843EA0020FEF7EDFC2B88ADF8043067
:406500009DF8053023BB0221084AD15426E000BF84DE0810DC0E03083879020844760208D80E0308BCDE0810C40E0308D00E0308CC0E030830790208D10E030834790208C4
:40654000C80E0308F4780208C60E0308DD0E030823B94FF46171A348FDF772FD6A782988A14B23F812106B780021A04AD15403EB43019F4E88199F4B1B681B692A7802EBA1
:40658000420202F64842134433F8022F9B788A538370687800EB400002213044FEF7E2F86B7803EB430333449B7898420BD0924B1B680021914898476B7803EB43039819B7
:4065C00000229A53827029462046FEF7C7FFF8E00B88ADF808309DF8093013B9884AD25C00E00022072A0BD11BB90121844AD15417E0B3B94FF461717A48FDF721FD10E0F4
:406600001BB900217E4AD15405E023B94FF461717448FDF715FD2B78687843EA0020FEF759FC6B780021774AD15429462046FEF795FFC6E00B88ADF81C301723ADF81E3027
:4066400007A810F0B3FABCE0FEF788FFB9E00A89531E9BB20A2B13D98B89ADF81C30ADF81E2012238DF8203001238DF8213007A810F090FA644A137803F0FE031370A0E046
:406680000846FEF769FB014620B929462046FEF765FF01462846FEF711FF92E0FEF75EFF8FE0FEF75BFF8CE0FEF758FF89E0FEF755FF86E00846FEF791FB29462046FEF740
:4066C0004DFF7EE00846FEF775FF7AE00846FFF747F876E0FEF742FF73E00B78487843EA0020FFF793FB6CE00846FFF745F968E00846FFF7FFFB29462046FEF72FFF60E0DD
:40670000FEF72CFF5DE00846FEF77CFD29462046FEF724FF3C4B1B7813F0010F51D1AB890EA820F81C3D0FF007FB4AE0FEF716FF47E0FEF713FF44E0FEF710FF41E0FEF708
:406740000DFF3EE00B78487843EA0020FEF71CFC06462B88ADF80C309DF80D3013B9284AD35C00E00023042B2BD156BB06EB0613264A12F8233023B306EB0612234B03EBE2
:4067800082031B8AADF81C302B88ADF81E3007A80FF0DCFB50B1184B1B6829461C489847442303FB06F60022184B9A55164A137803F0FE03137004E0164A137843F00103BD
:4067C0001370114B1B7813F0110F09D00E4A137803F0FE031370084B1B682946204698470EB070BD84DE0810C40E0308DC0E0308D40E0308F4780208F8780208040001002E
:40680000D00E030830790208D80E0308F40E030809000100C70E030870B582B001900088FEF7B2FB019B1B7E012B34D1054600EB00129300194A13445B68022B2BD122E0D9
:40684000174B33F81410019B1A89914219D1C5EBC5014A0002EB840212490A4452885AB9DE880846E900491B4A0002EB840281184E801B79835404E00B4B1B6801A90B4858
:406880009847013400E00024022CD9D9084A137803F0FE03137002B070BD00BFF40E0308C0DE0810440F0308F87802080D000100D80E030810B504460088FEF765FB00EB7D
:4068C00000129300114A13445B68022B1DD1A28842F602139A4213D1C0EBC00253000C4A13449B893BB96288C0EBC000430008490B449A8104E0074B1B68211D0648984730
:40690000064A137803F0FE03137010BDF40E0308440F0308F87802080E000100D80E030810B504460068FEF72FFB00EB00129300144A13445B68022B23D1A3683BB102019A
:40694000024493000F4A13449A6801329A6000EB001293000B4A13449B686BB9C200111A4B0009490B445B880133638010444300064A1344DB89A380054A137803F0FE0396
:40698000137010BDF40E0308440F0308E00E0308D80E030878B110B504460088FEF7F4FA6288054B33F810309A4203D10022024B23F8102010BD70474479020830B583B01D
:4069C0000446C068FEF7E0FAC8B90E4A5568B5B1C0EBC0030C4A02EB43035A8823899A420DD100230093A389ADF80030019469460648A847064A137803F0FE03137003B0DE
:406A000030BD00BF44790208440F030878000100D80E030830B583B005468068FEF7B4FA00285BD104462E4B5A68002A56D033F81030002B52D0C0EBC0012A4800EB410141
:406A400049888B4218D0C4EBC40100EB4101C9888B4215D0C4EBC40100EB410149898B4212D0C4EBC40100EB410189898B420FD10023012001460EE00023184601210AE064
:406A800001230020194606E002230020012102E000231846194609B358B9002100912989ADF800108DF80230019569460E4890470BE02B89ADF8003000238DF802308DF842
:406AC00003300195694609489047094A137803F0FE0313700022024B23F8142003B030BD44790208440F0308790001007A000100D80E030870B582B004460378407843EA37
:406B00000020FEF741FA00284ED10346274A5568002D49D032F81020002A45D0C0EBC00041002348014489898A4214D12288ADF8002000228DF802208DF8032001921B4972
:406B400021F813201B4A137803F0FE03137069461948A84728E0C3EBC3004100144801444888824207D0C3EBC3067100104E3144C9888A4218D1824203D100228DF802207B
:406B800002E001228DF802202288ADF8002000220192064921F81320064A137803F0FE03137069460548A84702B070BD44790208440F0308D80E03087B0001007C0001003F
:406BC00010B50C46B0F5803F14D3224B984209D0013398420AD0023B984238D10846FFF71BFE34E00846FFF765FE30E00846FFF797FE2CE080B2A0F5A040122827D8DFE857
:406C000000F00A26262626262626261F26262623262626261B000888FEF7B6F9B8B900EB00139A000C4B9B5C8BB963790A2B0ED02046FFF7AFFE0AE00846FFF7BFFE06E02B
:406C40000846FFF7E7FE02E00846FFF753FF002010BD00BF32010100F40E030860B338B5164CA0601648FEF74BFCA3685B6803B1636000231DE003EBC3014A0011490A4481
:406C800092894AB9C3EBC30254000F4D6119002262514A608A608A810021084A22F8131003EBC3014A0007490A4441F6050111820133002BDFD038BD0448704744790208BE
:406CC000C16B0810E00E0308440F030801001600044B58609B6813B15860002070470248704700BF447902080200160030B585B0ADF804000D4600230393ADF80E000198CB
:406D0000FEF742F90446BDF804301B0A02D1224AD35C00E00023072B34D1ACBB012D0DD015B1022D14D01DE0C4EBC4031B4A02EB43035B88ADF80C30002314E0C4EBC4037C
:406D4000164A02EB4303DB88ADF80C3000230AE0C4EBC403114A02EB43035B89ADF80C30002300E00E4B9BB9BDF80C3073B103A80FF0ECF8034658B9BDF80C10094A22F87B
:406D8000141005E0084B03E0054B01E04FF01613184605B030BD00BFD00E0308440F03080100160044790208FF001600F0B589B0ADF804000D4616461F460198FEF7E4F8FD
:406DC0000446BDF804301B0A02D1204AD35C00E00023072B28D14CBB0E9B4BB355BB5EBB022F2BD10E231A4A03FB04239A893AB300230593069307930E9B0493ADF814707C
:406E0000ADF81820BDF80430ADF81C3004A80FF0B7F80346B0B90E220D4902FB041291890C4A22F814100DE00B4B0BE00B4B09E00A4B07E0094B05E0084B03E0074B01E0FD
:406E40004FF01613184609B0F0BD00BFD00E0308440F030844790208FF0016000100160000F1080343604FF0FF328260C360036100230360704700BF00230361704700BF7C
:406E800043684B609A688A609A68516099600861036801330360704730B40D68B5F1FF3F01D1026907E000F1080200E01A4653681C68A542FAD253684B6099608A6051603A
:406EC000086103680133036030BC704703694268816891608268416851605A68904201D182685A60002202611A68013A1A601868704700BF10B5044601F0D4F9A26BE36B6C
:406F00009A4201D1012400E0002401F0EDF9204610BD00BF10B5044601F0C4F9A36B0BB9012400E0002401F0DFF9204610BD00BF70B504461646856B026CFAB166B9806863
:406F400001F0F7FEA268236C1344A3606268934214D32368A36011E0C06801F0EAFE236C5B42E2681A44E26021688A4202D262681344E360022E01D105B1013D0135A5635B
:406F8000002070BD026C72B110B50346C4681444C4604068844201D31868D8600846D96801F0C7FE10BD704738B5054601F07AF995F8454064B20AE06B6A53B105F12400D9
:406FC00000F052FE08B100F0DDFE013C64B2002CF2DCFF2385F8453001F086F901F062F995F8444064B20AE02B6953B105F1100000F03AFE08B100F0C5FE013C64B2002CEE
:40700000F2DCFF2385F8443001F06EF938BD00BF38B540B94FF02F0383F31188BFF36F8FBFF34F8FFEE704460D4601F03BF92168E26B236C03FB021060600020A063A160BD
:40704000013A02FB0313E360FF2384F8443084F845307DB92369ABB104F1100000F004FE80B14FF08052094B1A60BFF34F8FBFF36F8F07E004F11000FFF7F2FE04F124002C
:40708000FFF7EEFE01F030F9012038BD04ED00E010B5029B0C4609B91B6000E01A60D8631C6401211846FFF7B3FF10BD40B94FF02F0383F31188BFF36F8FBFF34F8FFEE754
:4070C000F0B583B0034611B101FB00F000E000201D4617460C46483001F014FA064638B100903B4600F1480221462846FFF7D0FF304603B0F0BD00BFF0B585B0019240B922
:407100004FF02F0383F31188BFF36F8FBFF34F8FFEE7044619B9026C1AB9012202E0012200E0002242B94FF02F0383F31188BFF36F8FBFF34F8FFEE7022B03D1E26B012A0A
:4071400002D102E0012200E0002242B94FF02F0383F31188BFF36F8FBFF34F8FFEE71D460E4600F017FE18B9019B1BB9012302E0012300E0002343B94FF02F0383F31188EF
:40718000BFF36F8FBFF34F8FFEE7002701F08AF8A26BE36B9A4201D3022D21D12A4631462046FFF7C5FE636A6BB104F1240000F05BFD88B14FF08052324B1A60BFF34F8FC3
:4071C000BFF36F8F08E038B14FF080522D4B1A60BFF34F8FBFF36F8F01F086F801204EE0019B1BB901F080F8002048E01FB902A800F07EFD012701F077F800F06BFB01F030
:4072000051F894F844305BB2B3F1FF3F02D1002384F8443094F845305BB2B3F1FF3F02D1002384F8453001F05FF801A902A800F069FDF0B92046FFF75DFEA0B1019904F127
